S00C00006D61696E2E7372656373
S11300000C942A000C9447000C9447000C9447006D
S11300100C9447000C9447000C9447000C94470040
S11300200C9447000C9447000C9447000C94470030
S11300300C9447000C9447000C9447000C94470020
S11300400C9447000C9447000C9447000C94470010
S11300500C94470011241FBECFE5D8E0DEBFCDBF0E
S113006014E0A0E6B0E0E2E4F7E102C005900D92EE
S1130070AC3AB107D9F724E0ACEAB4E001C01D9270
S1130080A33BB207E1F70E9415070C949F0B0C9455
S113009000005D9BFECF8CB980E090E008955F9BEB
S11300A0FECF8CB108955D9BFECF8CB90895FF926D
S11300B00F931F93CF93DF9389E690E08CB9C0E050
S11300C0D0E00E944F00082F10E00E9453000D3032
S11300D01105E1F0C801C0970A9780F4CE01880F9A
S11300E0991FCC0FDD1FCC0FDD1FCC0FDD1FC80FF8
S11300F0D91F00531109C00FD11FE3CF8AE690E046
S11301009F938F930E94AF080F900F90CE01DF91C1
S1130110CF911F910F91FF900895AF92BF92CF920C
S1130120DF92EF92FF920F931F93CF93DF9381306F
S1130130910509F08AC089E790E09F938F930E940C
S1130140AF080F900F9000E010E06894DD24D3F81E
S1130150C1E9D0E06894CC24C1F86894BB24B2F817
S1130160AA24A394B09B6CC0D5BA8BE49DE10197FB
S1130170F1F700C00000C80101969F938F93DF93AD
S1130180CF930E94AF0887EA91E60197F1F700C088
S113019000000F900F900F900F90B09B51C0C5BA04
S11301A08BE49DE10197F1F700C00000C8010296BD
S11301B09F938F93DF93CF930E94AF0887EA91E6D2
S11301C00197F1F700C000000F900F900F900F906F
S11301D0B09B36C0B5BA8BE49DE10197F1F700C03E
S11301E00000C80103969F938F93DF93CF930E94DF
S11301F0AF0887EA91E60197F1F700C000000F907D
S11302000F900F900F90B09B1BC0A5BA8BE49DE19B
S11302100197F1F700C000000C5F1F4F1F930F936D
S1130220DF93CF930E94AF0887EA91E60197F1F735
S113023000C000000F900F900F900F90B09992CFD4
S11302408EEA90E00E94C308FFC08230910509F055
S113025090C081ED90E09F938F930E94AF080F9020
S11302600F9000E010E06894DD24D7F8C9EED0E0E8
S11302706894CC24C5F86894BB24B6F86894AA247E
S1130280A4F8B19B6CC0D5BA8BE49DE10197F1F75A
S113029000C00000C80101969F938F93DF93CF9312
S11302A00E94AF0887EA91E60197F1F700C00000C9
S11302B00F900F900F900F90B19B51C0C5BA8BE473
S11302C09DE10197F1F700C00000C80102969F93D9
S11302D08F93DF93CF930E94AF0887EA91E601974B
S11302E0F1F700C000000F900F900F900F90B19B9A
S11302F036C0B5BA8BE49DE10197F1F700C0000068
S1130300C80103969F938F93DF93CF930E94AF0806
S113031087EA91E60197F1F700C000000F900F9073
S11303200F900F90B19B1BC0A5BA8BE49DE1019780
S1130330F1F700C000000C5F1F4F1F930F93DF9372
S1130340CF930E94AF0887EA91E60197F1F700C0C6
S113035000000F900F900F900F90B19992CF15BAA3
S113036086E091E09F938F930E94AF080F900F90C7
S11303706BC0039709F068C000E010E06894DD24C6
S1130380D3F8CCE2D1E06894CC24C1F86894BB24BF
S1130390B2F8AA24A394879B54C0DBBA8BE49DE1F2
S11303A00197F1F700C00000C80101969F938F9355
S11303B0DF93CF930E94AF080F900F900F900F9090
S11303C0879B3FC0CBBA8BE49DE10197F1F700C056
S11303D00000C80102969F938F93DF93CF930E94EE
S11303E0AF080F900F900F900F90879B2AC0BBBA55
S11303F08BE49DE10197F1F700C00000C80103966A
S11304009F938F93DF93CF930E94AF080F900F9029
S11304100F900F90879B15C0ABBA8BE49DE10197B9
S1130420F1F700C000000C5F1F4F1F930F93DF9381
S1130430CF930E94AF080F900F900F900F90879961
S1130440AACF81E08BBB12BADF91CF911F910F919C
S1130450FF90EF90DF90CF90BF90AF9008952F92D0
S11304603F924F925F926F927F928F929F92AF9240
S1130470BF92CF92DF92EF92FF920F931F93CF938D
S1130480DF936C01181619060CF0AEC0B29BACC019
S113049002E010E00F2EF3E0EF2EF12CF02DC1E07E
S11304A0D0E0812C912C0F2EF7E44F2EF1E05F2E3B
S11304B0F02D0F2EF3E62F2EF1E03F2EF02D0F2E10
S11304C0FEE76F2EF1E07F2EF02D08C0249624E085
S11304D0E20EF11C0C5F1F4FB29B86C081E085BB0E
S11304E087E893E10197F1F700C00000DF93CF9311
S11304F05F924F920E94AF088FE996E821E0815005
S113050090402040E1F700C000000F900F900F9042
S11305100F90B29B69C0CC15DD050CF065C084E07A
S113052085BB87E893E10197F1F700C000001F93B2
S11305300F933F922F920E94AF089FE926E881E033
S1130540915020408040E1F700C000000F900F90D0
S11305500F900F90B29B48C00C151D050CF044C0C1
S113056092E095BB87E893E10197F1F700C00000A2
S1130570FF92EF927F926F920E94AF089FE926E864
S113058081E0915020408040E1F700C000000F90CE
S11305900F900F900F90B29B27C0EC14FD0424F52C
S11305A098E095BB87E893E10197F1F700C000005C
S11305B094E0890E911C9F928F927F926F920E9479
S11305C0AF082FE986E891E0215080409040E1F7A0
S11305D000C000000F900F900F900F90B29B04C0CA
S11305E08C149D040CF472CFDF91CF911F910F9165
S11305F0FF90EF90DF90CF90BF90AF909F908F903F
S11306007F906F905F904F903F902F9008952F921E
S11306103F924F925F926F927F928F929F92AF928E
S1130620BF92CF92DF92EF92FF920F931F93CF93DB
S1130630DF936C01181619060CF0AEC0B39BACC066
S113064002E010E00F2EF3E0EF2EF12CF02DC1E0CC
S1130650D0E0812C912C0F2EF9E94F2EF1E05F2E82
S1130660F02D0F2EF5EB2F2EF1E03F2EF02D0F2E57
S1130670F0ED6F2EF1E07F2EF02D08C0249624E0DB
S1130680E20EF11C0C5F1F4FB39B86C080E185BB5B
S113069087E893E10197F1F700C00000DF93CF935F
S11306A05F924F920E94AF088FE996E821E0815053
S11306B090402040E1F700C000000F900F900F9091
S11306C00F90B39B69C0CC15DD050CF065C080E4C8
S11306D085BB87E893E10197F1F700C000001F9301
S11306E00F933F922F920E94AF089FE926E881E082
S11306F0915020408040E1F700C000000F900F901F
S11307000F900F90B39B48C00C151D050CF044C00E
S113071090E295BB87E893E10197F1F700C00000F0
S1130720FF92EF927F926F920E94AF089FE926E8B2
S113073081E0915020408040E1F700C000000F901C
S11307400F900F900F90B39B27C0EC14FD0424F579
S113075090E895BB87E893E10197F1F700C00000AA
S113076094E0890E911C9F928F927F926F920E94C7
S1130770AF082FE986E891E0215080409040E1F7EE
S113078000C000000F900F900F900F90B39B04C017
S11307908C149D040CF472CFDF91CF911F910F91B3
S11307A0FF90EF90DF90CF90BF90AF909F908F908D
S11307B07F906F905F904F903F902F9008952F926D
S11307C03F924F925F926F927F928F929F92AF92DD
S11307D0BF92CF92DF92EF92FF920F931F93CF932A
S11307E0DF936C01181619060CF0ABC002E010E0A0
S11307F00F2EF3E0EF2EF12CF02DC1E0D0E0812C90
S1130800912C0F2EFBEE6F2EF1E07F2EF02D0F2E8C
S1130810F7E04F2EF2E05F2EF02D0F2EF3E22F2E95
S1130820F2E03F2EF02D28E025BB87E893E1019705
S1130830F1F700C00000DF93CF937F926F920E9484
S1130840AF088FE996E821E0815090402040E1F71D
S113085000C000000F900F900F900F90B39B71C0D9
S1130860CC15DD050CF06DC082E085BB87E893E113
S11308700197F1F700C000001F930F937F926F92CE
S11308800E94AF089FE926E881E091502040804013
S1130890E1F700C000000F900F900F900F90B39BF2
S11308A050C00C151D050CF04CC094E095BB87E8B6
S11308B093E10197F1F700C00000FF92EF925F927D
S11308C04F920E94AF089FE926E881E091502040B2
S11308D08040E1F700C000000F900F900F900F9040
S11308E0B39B2FC0EC14FD0464F5B39B2AC091E0C4
S11308F095BB87E893E10197F1F700C0000094E00D
S1130900890E911C9F928F923F922F920E94AF0862
S11309102FE986E891E0215080409040E1F700C043
S113092000000F900F900F900F90B39B0AC0249675
S113093024E0E20EF11C0C5F1F4F8C149D040CF498
S113094072CFDF91CF911F910F91FF90EF90DF90C5
S1130950CF90BF90AF909F908F907F906F905F905B
S11309604F903F902F9008952F923F924F925F9215
S11309706F927F928F929F92AF92BF92CF92DF92AB
S1130980EF92FF920F931F93CF93DF936C0118168E
S113099019060CF0ABC002E010E00F2EF3E0EF2ECE
S11309A0F12CF02DC1E0D0E0812C912C0F2EFBEE28
S11309B06F2EF1E07F2EF02D0F2EF7E04F2EF2E098
S11309C05F2EF02D0F2EF3E22F2EF2E03F2EF02DAE
S11309D020E825BB87E893E10197F1F700C0000008
S11309E0DF93CF937F926F920E94AF088FE996E8CE
S11309F021E0815090402040E1F700C000000F90BA
S1130A000F900F900F90B39B71C0CC15DD050CF0C7
S1130A106DC080E285BB87E893E10197F1F700C0E0
S1130A2000001F930F937F926F920E94AF089FE97B
S1130A3026E881E0915020408040E1F700C00000AA
S1130A400F900F900F900F90B39B50C00C151D0585
S1130A500CF04CC090E495BB87E893E10197F1F763
S1130A6000C00000FF92EF925F924F920E94AF0885
S1130A709FE926E881E0915020408040E1F700C0E2
S1130A8000000F900F900F900F90B39B2FC0EC14A9
S1130A90FD0464F5B39B2AC090E195BB87E893E11C
S1130AA00197F1F700C0000094E0890E911C9F9219
S1130AB08F923F922F920E94AF082FE986E891E02F
S1130AC0215080409040E1F700C000000F900F904B
S1130AD00F900F90B39B0AC0249624E0E20EF11C01
S1130AE00C5F1F4F8C149D040CF472CF15BADF9168
S1130AF0CF911F910F91FF90EF90DF90CF90BF9017
S1130B00AF909F908F907F906F905F904F903F90A9
S1130B102F9008951816190684F420E030E04FE968
S1130B2056E861E0415050406040E1F700C00000E9
S1130B302F5F3F4F2817390791F708952F923F925F
S1130B404F925F926F927F928F929F92AF92BF92D9
S1130B50CF92DF92EF92FF920F931F93CF93DF9385
S1130B605C01762E672E80E482BB1A141B040CF001
S1130B707AC000E010E0EE24E394F12C0F2EF3E0B1
S1130B808F2E912CF02D6894CC24C1F8D12C5524AF
S1130B905394C0E4D2E06894442442F86894332423
S1130BA031F86894222423F813C080E482BB053111
S1130BB011052CF00F2EF9E17F2EF02D612C84E02D
S1130BC0880E911C84E0C80ED11C84E0E80EF11C50
S1130BD05BBA872D962D0E948A051F930F93DF938E
S1130BE0CF930E94AF080F900F900F900F90EA14CC
S1130BF0FB04CCF54BBA872D962D0E948A05FF92F3
S1130C00EF92DF93CF930E94AF080F900F900F9055
S1130C100F90CA14DB043CF53BBA872D962D0E9435
S1130C208A05DF92CF92DF93CF930E94AF080F9093
S1130C300F900F900F908A149B04ACF42BBA872D5D
S1130C40962D0E948A059F928F92DF93CF930E94E4
S1130C50AF080C5F1F4F0F900F900F900F900A1565
S1130C601B050CF4A2CF80E882BB15BADF91CF91AB
S1130C701F910F91FF90EF90DF90CF90BF90AF90B6
S1130C809F908F907F906F905F904F903F902F90A8
S1130C9008958F929F92AF92BF92CF92DF92EF927C
S1130CA0FF920F931F93CF93DF9387E592E09F9377
S1130CB08F930E94AF080F900F90C9E6D2E007E52A
S1130CC012E06894882484F86894992496F86894C7
S1130CD0AA24A5F86894BB24B7F8CC24C3946894D8
S1130CE0DD24D2F86894EE24E1F86894FF24F3F844
S1130CF00E944F008737E9F4F5BA8FE097E2019735
S1130D00F1F700C00000E5BA8FE097E20197F1F730
S1130D1000C00000D5BA8FE097E20197F1F700C058
S1130D200000C5BA8FE097E20197F1F700C0000018
S1130D30DFCF8337E9F4C5BA8FE097E20197F1F783
S1130D4000C00000D5BA8FE097E20197F1F700C028
S1130D500000E5BA8FE097E20197F1F700C00000C8
S1130D60F5BA8FE097E20197F1F700C00000C0CF19
S1130D708136E9F4B5BA8FE097E20197F1F700C044
S1130D800000A5BA8FE097E20197F1F700C00000D8
S1130D9095BA8FE097E20197F1F700C0000085BA99
S1130DA08FE097E20197F1F700C00000A1CF8436ED
S1130DB0E9F485BA8FE097E20197F1F700C00000EB
S1130DC095BA8FE097E20197F1F700C00000A5BA49
S1130DD08FE097E20197F1F700C00000B5BA8FE009
S1130DE097E20197F1F700C0000082CF15BADF93B4
S1130DF0CF930E94AF080E944F000F900F90893745
S1130E0039F01F930F930E94AF080F900F9070CF8B
S1130E10DF91CF911F910F91FF90EF90DF90CF90D2
S1130E20BF90AF909F908F900895CF93DF93CDB7ED
S1130E30DEB7E6970FB6F894DEBF0FBECDBFFE0156
S1130E4031968EE0DF011D928A95E9F783E08C8369
S1130E5089E490E09A8789878FEF84BB15BA17BA23
S1130E6088BB8ABB8BBB80E481BB80E882BB1BB898
S1130E7088E98AB986E880BD10BC83E389B9F09318
S1130E80B004E093AF040F2EFEECEF2EF3E0FF2E40
S1130E90F02DABECB2E0BF93AF930E94AF08A7EE86
S1130EA0B2E0BF93AF930E94AF08ACE0B3E0BF934E
S1130EB0AF930E94AF0883E693E09F938F930E94C1
S1130EC0AF080E944F008093AC040FB6F894DEBFC5
S1130ED00FBECDBF813609F0AAC083E090E00E9426
S1130EE08D0081E090E00E948D0082E090E00E94FD
S1130EF08D0089E693E09F938F930E94AF088EE85C
S1130F0093E09F938F930E94AF080E9457001C01A7
S1130F108FEA93E09F938F930E94AF081CA21BA2B9
S1130F20188A1F860F900F900F900F900F900F90BC
S1130F30121413040CF0F0C0CE0185966C0101E08C
S1130F4010E0FF92EF920E94AF080E945700D60172
S1130F508D939D936D010F5F1F4F0F900F9020167F
S1130F6031067CF7C8C0A1EDB3E0BF93AF930E94F4
S1130F70AF080E945700D8018D939D938D010F9067
S1130F800F90AC15BD0579F7D8C02601F601A280F3
S1130F90B380D80112968D909C901397BF92AF9214
S1130FA09F928F92A4EDB3E0BF93AF930E94AF08DA
S1130FB0F801808191810E5F1F4F9401281B390B2A
S1130FC0C9010F900F900F900F900F900F909923DD
S1130FD01CF00E942F0205C09195819591090E94F1
S1130FE0DF0332E0C30ED11CD2018D919C91F50137
S1130FF0E81BF90BCF011AF00E94070305C0919575
S1131000819591090E94B40483E090E00E948D00D0
S113101061E070E083E290E00E949E0583E090E04E
S11310200E948D000215130509F0AFCF32CF83372C
S113103009F03FC083E090E00E948D0081E090E0E1
S11310400E948D0082E090E00E948D008CEF93E07E
S11310509F938F930E94AF0882E194E09F938F93B4
S11310600E94AF080E9457008C018BE294E09F938A
S11310708F930E94AF080E9457006C01C8010E9420
S11310802F02C6010E94070383E090E00E948D00B6
S113109061E070E083E290E00E949E0583E090E0CE
S11310A00E948D000F900F900F900F900F900F9053
S11310B0F0CE8D36B9F483E090E00E948D0081E09B
S11310C090E00E948D0082E090E00E948D0084E414
S11310D094E09F938F930E94AF080E9449060F905B
S11310E00F90D7CE85E594E09F938F930E94AF082D
S11310F00F900F90CECE82E694E09F938F930E9440
S1131100AF088E010F5E1F4F220C331C6801C20C06
S1131110D31C0F900F9027CF82E694E09F938F9378
S11311200E94AF0881E894E09F938F930E94AF08D8
S11311300F900F900F900F90ACCE81E894E09F93A6
S11311408F930E94AF088E010D5D1F4F9E01215F9A
S11311503F4F6901200E311E0F900F9016CFA0E073
S1131160B0E0E5EBF8E00C94780BFE013596619164
S11311707191AF018091AF049091B0040E94F00886
S1131180E2E00C94940B0F931F93CF93DF93E091C1
S1131190AF04F091B004238121FF1BC0EC0100E0F7
S11311A010E089916091AF047091B004DB0118964E
S11311B0ED91FC911997882331F00995892B89F3D6
S11311C00FEF1FEFEECF8AE00995892B11F4C801C8
S11311D002C08FEF9FEFDF91CF911F910F91089580
S11311E0ACE0B0E0E6EFF8E00C94680B7C016B0136
S11311F08A01FC0117821682838181FFBDC1CE0161
S113120001964C01F7019381F60193FD859193FFBB
S113121081916F01882309F4ABC1853239F493FDC0
S1131220859193FF81916F01853229F4B70190E094
S11312300E94D80AE7CF512C312C20E02032A0F4B0
S11312408B3269F030F4803259F0833269F42061D2
S11312502CC08D3239F0803339F4216026C02260ED
S1131260246023C0286021C027FD27C030ED380F3B
S11312703A3078F426FF06C0FAE05F9E300D112460
S1131280532E13C08AE0389E300D1124332E206271
S11312900CC08E3221F426FD6BC1206406C08C364E
S11312A011F4206802C0883641F4F60193FD85915B
S11312B093FF81916F018111C1CF982F9F7D955428
S11312C0933028F40C5F1F4FFFE3F9830DC083367E
S11312D031F0833771F0833509F05BC022C0F80127
S11312E0808189830E5F1F4F44244394512C540101
S11312F015C03801F2E06F0E711CF801A080B180B6
S113130026FF03C0652D70E002C06FEF7FEFC501BB
S11313102C870E94CD0A2C0183012C852F77222E45
S113132017C03801F2E06F0E711CF801A080B18083
S113133026FF03C0652D70E002C06FEF7FEFC5018B
S11313402C870E94C20A2C012C852068222E83013E
S113135023FC1BC0832D90E048165906B0F4B70156
S113136080E290E00E94D80A3A94F4CFF50127FC79
S1131370859127FE81915F01B70190E00E94D80A10
S113138031103A94F1E04F1A51084114510471F7A5
S1131390E5C0843611F0893639F5F80127FF07C016
S11313A060817181828193810C5F1F4F08C06081CD
S11313B07181882777FD8095982F0E5F1F4F2F76B8
S11313C0B22E97FF09C090958095709561957F4FD7
S11313D08F4F9F4F2068B22E2AE030E0A4010E9474
S11313E00A0BA82EA81844C0853729F42F7EB22EE4
S11313F02AE030E025C0F22FF97FBF2E8F36C1F0EE
S113140018F4883579F0B4C0803719F0883721F0A2
S1131410AFC02F2F2061B22EB4FE0DC08B2D84607F
S1131420B82E09C024FF0AC09F2F9660B92E06C0AB
S113143028E030E005C020E130E002C020E132E0E5
S1131440F801B7FE07C060817181828193810C5FCE
S11314501F4F06C06081718180E090E00E5F1F4FD6
S1131460A4010E940A0BA82EA818FB2DFF77BF2EFB
S1131470B6FE0BC02B2D2E7FA51450F4B4FE0AC06B
S1131480B2FC08C02B2D2E7E05C07A2C2B2D03C058
S11314907A2C01C0752C24FF0DC0FE01EA0DF11D4C
S11314A08081803311F4297E09C022FF06C0739421
S11314B0739404C0822F867809F0739423FD13C0BB
S11314C020FF06C05A2C731418F4530C5718732CAD
S11314D0731468F4B70180E290E02C870E94D80A64
S11314E073942C85F5CF731410F4371801C0312C84
S11314F024FF12C0B70180E390E02C870E94D80A31
S11315002C8522FF17C021FF03C088E590E002C0AC
S113151088E790E0B7010CC0822F867859F021FD4E
S113152002C080E201C08BE227FD8DE2B70190E0AA
S11315300E94D80AA51438F4B70180E390E00E9411
S1131540D80A5A94F7CFAA94F401EA0DF11D8081C8
S1131550B70190E00E94D80AA110F5CF332009F416
S113156051CEB70180E290E00E94D80A3A94F6CFB7
S1131570F7018681978102C08FEF9FEF2C96E2E1FD
S11315800C94840BFC010590615070400110D8F755
S1131590809590958E0F9F1F0895FC0161507040B7
S11315A001900110D8F7809590958E0F9F1F089594
S11315B00F931F93CF93DF93182F092FEB018B8188
S11315C081FD03C08FEF9FEF20C082FF10C04E81CA
S11315D05F812C813D81421753077CF4E881F981B6
S11315E09F012F5F3F4F39832883108306C0E8850E
S11315F0F985812F0995892B29F72E813F812F5F4A
S11316003F4F3F832E83812F902FDF91CF911F91E6
S11316100F910895FA01AA27283051F1203181F160
S1131620E8946F936E7F6E5F7F4F8F4F9F4FAF4FE6
S1131630B1E03ED0B4E03CD0670F781F891F9A1FF9
S1131640A11D680F791F8A1F911DA11D6A0F711DAD
S1131650811D911DA11D20D009F468943F912AE0B9
S1131660269F11243019305D3193DEF6CF010895A1
S1131670462F4770405D4193B3E00FD0C9F7F6CFD2
S1131680462F4F70405D4A3318F0495D31FD40529A
S1131690419302D0A9F7EACFB4E0A6959795879530
S11316A077956795BA95C9F700976105710508950F
S11316B09B01AC010A2E06945795479537952795BB
S11316C0BA95C9F7620F731F841F951FA01D089553
S11316D02F923F924F925F926F927F928F929F923E
S11316E0AF92BF92CF92DF92EF92FF920F931F932C
S11316F0CF93DF93CDB7DEB7CA1BDB0B0FB6F894DD
S1131700DEBF0FBECDBF09942A88398848885F841C
S11317106E847D848C849B84AA84B984C884DF808D
S1131720EE80FD800C811B81AA81B981CE0FD11D71
S11317300FB6F894DEBF0FBECDBFED010895F89447
S1051740FFCFD5
S113174225642E2564200D200A00696E76616C6979
S113175264206E756D626572000A0D496E69746962
S1131762616C697A696E6720582E2E2E2E0A200D1E
S113177200782D61786973207265766572736520CD
S113178264656C74613D2D2564200A200D00582D7A
S11317924178697320496E697469616C697A61740C
S11317A2696F6E20436F6D706C657465640A200DF9
S11317B2000A0D496E697469616C697A696E672001
S11317C2592E2E2E2E0A200D00592D617869732070
S11317D2726576657273652064656C74613D2D254E
S11317E264200A200D00592D4178697320496E69DD
S11317F27469616C697A6174696F6E20436F6D708C
S11318026C657465642E2E2E0A200D000A0D5A2D65
S11318126178697320726576657273652064656C9C
S113182274613D2D256400782D6178697320666F9B
S113183272776172642064656C74613D2564200A68
S1131842200D00782D6178697320666F727761725A
S1131852642064656C74613D2564200A0D00782D52
S11318626178697320666F72776172642064656C53
S113187274613D25640A200D007920617869732022
S1131882666F72776172642064656C74613D25646D
S1131892200A200D0079206178697320666F7277BF
S11318A26172642064656C74613D2564200A0D00D4
S11318B279206178697320666F727761726420643B
S11318C2656C74613D25640A200D00792061786994
S11318D27320666F72776172642064656C74613D13
S11318E22D25640A200D0079206178697320666FC2
S11318F272776172642064656C74613D2D25642085
S11319020A0D0079206178697320666F72776172BB
S1131912642064656C74613D2D2564200A200D00E9
S11319220A0D5A2D6178697320646F776E2064659D
S11319326C74613D25640050726573732061207379
S113194220772064200A200D000A0D446F20796F4D
S1131952752077616E7420746F20657869743F20F6
S11319627072657373207920746F206578697420AE
S1131972616E64206E20746F2063616E63656C3ADD
S113198220200A200D00746865207820616E64208E
S11319927920636F6F7264696E617465732061721A
S11319A265202564202C25640A0D000A0D2D2D2D99
S11319B22D2D2D2D2D2D2D2A2A2A2A2A2D2D2D2D60
S11319C22D2D2D2D2D2D000A0D4175746F6D617411
S11319D2696320504342204472696C6C696E6720CB
S11319E24D616368696E65200A200D0053656C655C
S11319F26374204D6F6465206F66204F7065726159
S1131A0274696F6E3A200A200D20612D4175746F3E
S1131A126D61746963204D6F6465200A200D207323
S1131A222D53656D69204D616E75616C204D6F6437
S1131A3265200A0D206D2D4D616E75616C204D6F10
S1131A426465000A0A200D0D000A0D52656164796D
S1131A5220746F205265636569766520436F6F72E7
S1131A6264696E6174652E2E2E2E200A0D000A20E2
S1131A720D546F74616C204E756D626572206F66D1
S1131A8220636F6F7264696E61746573203D000A2E
S1131A920D0A0D53656E64696E6720582D436F6F8E
S1131AA27264696E617465732E2E2E0A0D00783D80
S1131AB200793D000A0D2043757272656E746C796B
S1131AC22050726F63657373696E6720506F696E1D
S1131AD2743D2825642C2564290A0D000A0D5365DA
S1131AE26D69204D616E75616C204D6F64650A20CD
S1131AF20D00656E74657220746865207820636FCA
S1131B026F7264696E6174653A2000656E74657201
S1131B1220746865207920636F6F7264696E6174E2
S1131B22653A20004D616E75616C204D6F64653AB3
S1131B32200A200D00496E76616C6964204D6F6441
S1131B4265000A0D0A0D53656E64696E6720592D8E
S1131B52436F6F7264696E617465732E2E2E0A0D63
S1131B62000A200D4472696C6C696E672050726FB2
S1131B726365737320686173206265656E20737494
S10F1B8261727465642E2E2E2E2E2E002F
S9030000FC
